:100000000C9438000C9455000C9455000C94550039
:100010000C9455000C9455000C9455000C9455000C
:100020000C9455000C9455000C9455000C945500FC
:100030000C9455000C9455000C9455000C945500EC
:100040000C9455000C941F030C9455000C9455000F
:100050000C9455000C9455000C9455000C945500CC
:100060000C9455000C9455000C9455000C945500BC
:1000700011241FBECFEFD0E1DEBFCDBF12E0A0E064
:10008000B1E0E6E7F5E102C005900D92A231B107BB
:10009000D9F712E0A2E1B2E001C01D92AA31B10786
:1000A000E1F70E9447020C94B90A0C9400008AB14F
:1000B00080638AB9E1E8F0E080818083A0E8B0E065
:1000C0008C91836F8C9380818360808381E090E04A
:1000D000909385008093840080E197E2909387005D
:1000E0008093860082EA93E0909389008093880051
:1000F00090938B0080938A000895579AE1EBF0E08B
:1001000080818083A0EBB0E08C91836A8C938081A6
:100110008360808381E08093B20080E58093B300A8
:100120008093B40008959C0180918800909189008B
:100130006817790718F46093B300089580918800D8
:10014000909189008217930710F42093B3000895CB
:100150009C0180918800909189006817790718F4B4
:100160006093B4000895809188009091890082176F
:10017000930710F42093B40008954098419A46984C
:10018000479A0895409A4198469A4798089540980A
:10019000419A469847980895409841984698479ABA
:1001A0000895409A41984698479A08954098419AF0
:1001B000469A4798089540984198469847980895D8
:1001C0008330910591F0843091051CF40197C9F4B6
:1001D00009C08530910579F0853091054CF006977E
:1001E00081F40CC00E94BD0008950E94C7000895CC
:1001F0000E94CC0008950E94D10008950E94D6006C
:1002000008950E94C200089515B888E893E128EC8B
:1002100030E0F9013197F1F70197D9F741E050E06B
:1002200020E030E068EC70E045B984EF91E0FB013C
:100230003197F1F70197D9F7440F551F2F5F3F4FC3
:100240002830310589F7089521E030E002C0220FFF
:10025000331F8A95E2F725B9089582EA93E09093D7
:1002600089008093880090938B0080938A0072E0CD
:1002700028EC30E064E058E041E011C08091880053
:10028000909189000A96909389008093880045B9DF
:1002900080E197E2F9013197F1F70197D9F7019BD6
:1002A000EDCF11C080918800909189000A979093BA
:1002B00089008093880075B980E197E2F901319750
:1002C000F1F70197D9F7029BEDCF11C080918A0019
:1002D00090918B000A9690938B0080938A0065B969
:1002E00080E197E2F9013197F1F70197D9F7039B84
:1002F000EDCF11C080918A0090918B000A97909366
:100300008B0080938A0055B980E197E2F90131971B
:10031000F1F70197D9F7049BEDCF15B888EE93E07C
:10032000F9013197F1F70197D9F7B9CF8AE793E04F
:1003300020E23EE4909389008093880090938B00A4
:1003400080938A00F9013197F1F7019643E08A3CE6
:10035000940781F7FFCFCF93DF93C8ECD0E00E94E2
:10036000BD0080E197E2FE013197F1F70197D9F7DF
:100370000E94C20080E197E2FE013197F1F70197F8
:10038000D9F70E94C70080E197E2FE013197F1F7AB
:100390000197D9F70E94CC0080E197E2FE013197E6
:1003A000F1F70197D9F70E94D10080E197E2FE01B1
:1003B0003197F1F70197D9F70E94D60080E197E2D3
:1003C000FE013197F1F70197D9F70E94DB0080E138
:1003D00097E2FE013197F1F70197D9F7C0CF15B831
:1003E00088EE93E028EC30E0F9013197F1F70197BE
:1003F000D9F78FEF85B988EE93E028EC30E0F9016A
:100400003197F1F70197D9F715B888EE93E028EC0A
:1004100030E0F9013197F1F70197D9F70895F89491
:100420008FEF88BD80E484BD89E085BD15BE84E082
:1004300080936E007894089580B1803218F081E046
:1004400090E020C080B1803118F082E090E01AC0C6
:1004500080B1883018F083E090E014C080B184301F
:1004600018F084E090E00EC080B1823018F085E092
:1004700090E008C080B1882319F086E090E002C0C7
:1004800087E090E0909305018093040108958F9296
:100490009F92AF92BF92CF92DF92EF92FF920F9313
:1004A0001F93CF93DF9315B88FEF84B987B91AB82C
:1004B0000E94040115B80E9457000E947D000E940E
:1004C0000F02C0E0D0E058EC852E912C209799F0D7
:1004D0008091880090918900019690938900809383
:1004E00088008091880090918900C0E0D0E08B5C0A
:1004F000934098F410C080918800909189000197F2
:100500009093890080938800809188009091890061
:100510008A57934010F4C1E0D0E020918A003091D6
:100520008B0080910201909103012817390730F464
:1005300080918A0090918B00019610C020918A00D2
:1005400030918B00809102019091030182179307F3
:1005500048F480918A0090918B00019790938B00D2
:1005600080938A000E941C022091040130910501B1
:10057000B90143E0660F771F4A95E1F7220F331F59
:10058000620F731F882777FD8095982F0E94F706CA
:100590005B016C0120E030E04AEF54E40E946D05FD
:1005A0007B018C0120E030E040E85FE30E94C70659
:1005B00088231CF461E070E022C0C801B70120E08C
:1005C0003FEF4FE757E40E9467061816A4F4C601F0
:1005D000B50120E030E040E251E40E946D050E9448
:1005E000970305C0C4010197F1F761507040611590
:1005F0007105C1F76BCFC801B7010E949703CB010A
:100600000197F1F763CF0E944D0A6BEF70E00E94F3
:10061000B209089589E590E00E94030308950E94BD
:10062000030362E070E00E94B2099093130280938A
:100630001202809112029091130285B908951F92BF
:100640000F920FB60F9211242F933F934F935F9306
:100650006F937F938F939F93AF93BF93EF93FF938A
:100660008091140290911502019690931502809347
:10067000140280911602909117020196909317022E
:1006800080931602409114025091150220910401AA
:100690003091050188EB9BE0BC01269FC001279F9C
:1006A000900D369F900D112448175907E1F40E94D0
:1006B000030360E570E00E949E0986589C4F90936A
:1006C0000101809300010E9403036AE070E00E9430
:1006D0009E0983569C4F90930301809302011092D0
:1006E0001502109214028091160290911702805305
:1006F000954761F40E940F038091120290911302BA
:100700000E94E0001092170210921602FF91EF91E2
:10071000BF91AF919F918F917F916F915F914F9119
:100720003F912F910F900FBE0F901F901895EF9251
:10073000FF920F931F937B018C0120E030E040E09B
:100740005FE40E94970688238CF0C801B70120E07F
:1007500030E040E05FE40E940F050E9455079B01D6
:10076000AC01205030404040504806C0C801B7019D
:100770000E9455079B01AC01B901CA011F910F915D
:10078000FF90EF900895A0E0B0E0E9ECF3E00C9466
:10079000C509DC012B01FA019C91923008F439C1A2
:1007A000EB018881823008F433C1943069F48430DD
:1007B00009F02FC111969C9111978981981709F41E
:1007C00028C1A6E0B1E025C1843009F421C18230FE
:1007D000A9F4923009F01DC19A01AD0188E0EA0147
:1007E0000990AE01E90109929E018150C1F7E20131
:1007F000898111969C918923818308C1923009F4E3
:1008000007C112962D903C901397EB018A819B8132
:100810001496AD90BD90CD90DC901797EC80FD8044
:100820000E811F819101281B390BB90137FF04C0CC
:1008300066277727621B730B603271050CF061C06D
:10084000121613066CF537014801062E04C0969463
:100850008794779467940A94D2F721E030E040E0DF
:1008600050E004C0220F331F441F551F6A95D2F772
:1008700021503040404050402E213F214023512301
:10088000211531054105510521F021E030E040E01E
:1008900050E079018A01E628F728082919293CC087
:1008A000232BD1F1260E371E35014601062E04C03A
:1008B00096948794779467940A94D2F721E030E075
:1008C00040E050E004C0220F331F441F551F6A95BB
:1008D000D2F721503040404050402A213B214C214A
:1008E0005D21211531054105510521F021E030E060
:1008F00040E050E059016A01A628B728C828D92845
:100900000BC0821593052CF01C01AA24BB246501A1
:1009100003C0EE24FF24870111969C91D201119609
:100920008C91981709F445C0992339F0A8019701D3
:100930002A193B094C095D0906C0A60195012E192B
:100940003F09400B510B57FD08C0118233822282B0
:1009500024833583468357831DC081E0818333829E
:10096000228288279927DC01821B930BA40BB50BED
:1009700084839583A683B7830DC0220F331F441F42
:10098000551F248335834683578382819381019742
:10099000938382832481358146815781DA01C9019D
:1009A0000197A109B1098F5F9F4FAF4FBF4328F354
:1009B0000BC0918333822282EA0CFB1C0C1D1D1D8F
:1009C000E482F5820683178383E080832481358166
:1009D0004681578157FF1AC0C901AA2797FDA095E4
:1009E000BA2F81709070A070B0705695479537956A
:1009F0002795822B932BA42BB52B84839583A683D9
:100A0000B78382819381019693838283DF0101C042
:100A1000D201CD01CDB7DEB7E2E10C94E109A0E24D
:100A2000B0E0E5E1F5E00C94D10969837A838B832A
:100A30009C832D833E834F835887E9E0EE2EF12C73
:100A4000EC0EFD1ECE010196B7010E94CD088E016D
:100A50000F5E1F4FCE010596B8010E94CD088A890E
:100A600091E089278A8BC701B801AE01475E5F4FCD
:100A70000E94C3030E94F807A096E6E00C94ED09DB
:100A8000A0E2B0E0E6E4F5E00C94D10969837A8352
:100A90008B839C832D833E834F835887F9E0EF2E11
:100AA000F12CEC0EFD1ECE010196B7010E94CD087F
:100AB0008E010F5E1F4FCE010596B8010E94CD0832
:100AC000C701B801AE01475E5F4F0E94C3030E9499
:100AD000F807A096E6E00C94ED09A0E2B0E0E3E7A9
:100AE000F5E00C94C50969837A838B839C832D83FD
:100AF0003E834F835887CE010196BE01675F7F4FCB
:100B00000E94CD08CE010596BE016F5E7F4F0E9408
:100B1000CD089985923088F089898230C8F0943068
:100B200019F4823051F404C0843029F4923081F4F5
:100B300086E091E0C6C0923049F420E09A858A8927
:100B4000981321E02A87CE010996BBC0823049F470
:100B500020E09A858A89981321E02A8BCE0141965C
:100B6000B0C02D843E844F8458886D887E888F88DD
:100B7000988CEE24FF248701AA24BB24650140E061
:100B800050E060E070E0E0E0F0E0C1018170907062
:100B9000892BE9F0E60CF71C081D191D9A01AB0121
:100BA0002A0D3B1D4C1D5D1D80E090E0A0E0B0E0F3
:100BB000E614F7040805190520F481E090E0A0E0B0
:100BC000B0E0BA01A901480F591F6A1F7B1FAA0C88
:100BD000BB1CCC1CDD1C97FE08C081E090E0A0E0AF
:100BE000B0E0A82AB92ACA2ADB2A3196E032F105F8
:100BF00049F0660C771C881C991C569447943794CE
:100C00002794C3CFFA85EA892B893C898B859C85FB
:100C1000280F391F2E5F3F4F17C0CA018170907097
:100C2000892B61F016950795F794E79480E090E0A2
:100C3000A0E0B0E8E82AF92A0A2B1B2B76956795E5
:100C4000579547952F5F3F4F77FDE7CF0CC0440F77
:100C5000551F661F771F17FD4160EE0CFF1C001F1C
:100C6000111F21503040403090E0590790E0690753
:100C700090E4790760F32B8F3C8FDB01CA018F77FB
:100C80009070A070B07080349105A105B10561F439
:100C900047FD0AC0E114F1040105110529F0405C8B
:100CA0005F4F6F4F7F4F40781A8EFE1711F081E033
:100CB0008A8F4D8F5E8F6F8F78A383E0898FCE01EF
:100CC00049960E94F807A096E2E10C94E109A8E198
:100CD000B0E0EDE6F6E00C94D10969837A838B836A
:100CE0009C832D833E834F83588789E0E82EF12C27
:100CF000EC0EFD1ECE010196B7010E94CD088E01BB
:100D00000F5E1F4FCE010596B8010E94CD08898560
:100D1000823040F08989823028F0C701B8010E94F2
:100D2000450901C08FEF6896E6E00C94ED09A8E153
:100D3000B0E0EDE9F6E00C94D10969837A838B8306
:100D40009C832D833E834F83588789E0E82EF12CC6
:100D5000EC0EFD1ECE010196B7010E94CD088E015A
:100D60000F5E1F4FCE010596B8010E94CD08898500
:100D7000823040F08989823028F0C701B8010E9492
:100D8000450901C08FEF6896E6E00C94ED09A8E1F3
:100D9000B0E0EDECF6E00C94D10969837A838B83A3
:100DA0009C832D833E834F83588789E0E82EF12C66
:100DB000EC0EFD1ECE010196B7010E94CD088E01FA
:100DC0000F5E1F4FCE010596B8010E94CD088985A0
:100DD000823040F08989823028F0C701B8010E9432
:100DE000450901C081E06896E6E00C94ED09A8E0B1
:100DF000B0E0EDEFF6E00C94CE099B01AC0183E08E
:100E00008983DA01C9018827B7FD83959927AA2725
:100E1000BB27B82E211531054105510519F482E093
:100E200089833AC08823A9F0203080E0380780E029
:100E3000480780E8580729F460E070E080E09FEC04
:100E400030C0EE24FF248701E21AF30A040B150BCD
:100E500002C079018A018EE1C82ED12CDC82CB82BE
:100E6000ED82FE820F831887C801B7010E94A9078F
:100E700001971816190684F4082E04C0EE0CFF1C06
:100E8000001F111F0A94D2F7ED82FE820F8318878C
:100E9000C81AD90ADC82CB82BA82CE0101960E949E
:100EA000F8072896E9E00C94EA09ACE0B0E0EBE53D
:100EB000F7E00C94D50969837A838B839C83CE01F8
:100EC0000196BE016B5F7F4F0E94CD088D818230FD
:100ED00061F1823050F1843021F48E81882351F108
:100EE0002EC02F81388537FD20C06E812F3131050E
:100EF0001CF06623F9F023C08EE190E0821B930B77
:100F000029853A854B855C8504C05695479537956C
:100F100027958A95D2F76623B1F050954095309584
:100F200021953F4F4F4F5F4F0EC020E030E040E033
:100F300050E009C02FEF3FEF4FEF5FE704C020E024
:100F400030E040E050E8B901CA012C96E2E00C9490
:100F5000F109EF92FF920F931F937B018C0180E0C8
:100F6000E81680E0F80681E0080780E0180788F4BA
:100F70008FEFE816F1040105110531F028F088E043
:100F800090E0A0E0B0E017C080E090E0A0E0B0E02A
:100F900012C080E0E81680E0F80680E0080781E0F3
:100FA000180728F088E190E0A0E0B0E004C080E1FC
:100FB00090E0A0E0B0E020E230E040E050E0281B0C
:100FC000390B4A0B5B0B04C016950795F794E79411
:100FD0008A95D2F7F701E25FFE4F8081281B310925
:100FE00041095109C9011F910F91FF90EF90089598
:100FF000DF92EF92FF920F931F93FC01E480F58044
:1010000006811781D1808081823048F480E090E0B1
:10101000A0E1B0E0E82AF92A0A2B1B2BA5C08430F6
:1010200009F49FC0823021F4EE24FF24870105C01B
:10103000E114F1040105110519F4E0E0F0E096C0B7
:10104000628173819FEF623879070CF05BC022E800
:101050003FEF261B370B2A3131052CF020E030E022
:1010600040E050E02AC0B801A701022E04C07695E6
:101070006795579547950A94D2F781E090E0A0E0F4
:10108000B0E004C0880F991FAA1FBB1F2A95D2F792
:101090000197A109B1098E219F21A023B1230097B7
:1010A000A105B10521F081E090E0A0E0B0E09A0157
:1010B000AB01282B392B4A2B5B2BDA01C9018F7727
:1010C0009070A070B07080349105A105B10539F41D
:1010D00027FF09C0205C3F4F4F4F5F4F04C0215C8A
:1010E0003F4F4F4F5F4FE0E0F0E02030A0E03A0785
:1010F000A0E04A07A0E45A0710F0E1E0F0E079012F
:101100008A0127C06038710564F5FB01E158FF4F83
:10111000D801C7018F779070A070B07080349105AE
:10112000A105B10539F4E7FE0DC080E490E0A0E030
:10113000B0E004C08FE390E0A0E0B0E0E80EF91E5C
:101140000A1F1B1F17FF05C016950795F794E79414
:10115000319687E016950795F794E7948A95D1F72D
:1011600005C0EE24FF248701EFEFF0E06E2F6795B6
:1011700066276795902F9F77D794DD24D7948E2F7D
:101180008695492F462B582F5D29B701CA011F911B
:101190000F91FF90EF90DF900895FC01DB014081FB
:1011A00051812281622F6F7770E0221F2227221F38
:1011B0009381892F880F822B282F30E0991F992740
:1011C000991F11969C93119721153105A9F5411589
:1011D00051056105710511F482E037C082E89FEF87
:1011E00013969C938E9312979A01AB0167E0220F9E
:1011F000331F441F551F6A95D1F783E08C930DC0B0
:10120000220F331F441F551F12968D919C911397E7
:10121000019713969C938E931297203080E03807A5
:1012200080E0480780E4580758F314962D933D93C7
:101230004D935C93179708952F3F310579F441152D
:1012400051056105710519F484E08C93089564FFDC
:1012500003C081E08C9312C01C9210C02F57304005
:1012600013963C932E93129783E08C9387E0440F60
:10127000551F661F771F8A95D1F7706414964D939A
:101280005D936D937C93179708951F93DC01FB0189
:101290009C91923008F447C08081823008F443C0AA
:1012A000943051F411961C91843099F58181682F06
:1012B00070E0611B71093FC0843021F0923031F43D
:1012C0008230B9F18181882389F12DC011961C915A
:1012D00011978230F1F081811817D9F412962D916F
:1012E0003C911397828193818217930794F028177A
:1012F0003907BCF014968D919D910D90BC91A02D55
:101300002481358146815781281739074A075B07B1
:1013100018F4112341F00AC082179307A407B507F8
:1013200040F4112319F061E070E005C06FEF7FEF2A
:1013300002C060E070E0CB011F910895AA1BBB1BA7
:1013400051E107C0AA1FBB1FA617B70710F0A61BC5
:10135000B70B881F991F5A95A9F780959095BC01E6
:10136000CD01089597FB092E07260AD077FD04D0FA
:10137000E5DF06D000201AF4709561957F4F08953F
:10138000F6F7909581959F4F08952F923F924F9237
:101390005F926F927F928F929F92AF92BF92CF9205
:1013A000DF92EF92FF920F931F93CF93DF93CDB70E
:1013B000DEB7CA1BDB0B0FB6F894DEBF0FBECDBF86
:1013C00009942A88398848885F846E847D848C8457
:1013D0009B84AA84B984C884DF80EE80FD800C8160
:1013E0001B81AA81B981CE0FD11D0FB6F894DEBF43
:1013F0000FBECDBFED010895A0E0B0E0E2E0FAE05D
:101400000C94CD09EC01A880B980CA80DB80A114BE
:10141000B104C104D10441F484E2A82E89EDB82EB0
:101420008BE5C82E87E0D82EC601B5012DE133EF3C
:1014300041E050E00E947C0A27EA31E440E050E0BD
:101440000E945D0A7B018C01C601B5012DE133EFDD
:1014500041E050E00E947C0ACA01B9012CEE34EF51
:101460004FEF5FEF0E945D0A6E0D7F1D801F911F81
:1014700097FF04C061507040804090486883798332
:101480008A839B839B013F77C901CDB7DEB7EAE032
:101490000C94E9090E94FC0908958EE092E00E94F4
:1014A000FC090895A0E0B0E080930E0290930F0233
:1014B000A0931002B09311020895629FD001739F10
:1014C000F001829FE00DF11D649FE00DF11D929FE0
:1014D000F00D839FF00D749FF00D659FF00D99271F
:1014E000729FB00DE11DF91F639FB00DE11DF91F43
:1014F000BD01CF011124089597FB092E05260ED0BA
:1015000057FD04D014D00AD0001C38F450954095F3
:10151000309521953F4F4F4F5F4F0895F6F79095C7
:101520008095709561957F4F8F4F9F4F0895A1E2F1
:101530001A2EAA1BBB1BFD010DC0AA1FBB1FEE1F4D
:10154000FF1FA217B307E407F50720F0A21BB30B98
:10155000E40BF50B661F771F881F991F1A9469F714
:1015600060957095809590959B01AC01BD01CF0170
:061570000895F894FFCF7E
:101576000100010002000000000000000000000160
:10158600020203030303040404040404040405051B
:1015960005050505050505050505050505050606F3
:1015A60006060606060606060606060606060606D5
:1015B60006060606060606060606060606060707C3
:1015C60007070707070707070707070707070707A5
:1015D6000707070707070707070707070707070795
:1015E6000707070707070707070707070707070785
:1015F6000707070707070707070707070707080873
:101606000808080808080808080808080808080854
:101616000808080808080808080808080808080844
:101626000808080808080808080808080808080834
:101636000808080808080808080808080808080824
:101646000808080808080808080808080808080814
:101656000808080808080808080808080808080804
:1016660008080808080808080808080808080808F4
:1016760008080808080808080808080808080100F3
:02168600000062
:00000001FF
